{
  "_format": "hh-sol-artifact-1",
  "contractName": "Crowdsale",
  "sourceName": "contracts/Crowdsale.sol",
  "abi": [
    {
      "inputs": [
        {
          "internalType": "uint256",
          "name": "_rate",
          "type": "uint256"
        },
        {
          "internalType": "address",
          "name": "_wallet",
          "type": "address"
        },
        {
          "internalType": "address",
          "name": "_token",
          "type": "address"
        }
      ],
      "stateMutability": "nonpayable",
      "type": "constructor"
    },
    {
      "anonymous": false,
      "inputs": [
        {
          "indexed": false,
          "internalType": "address",
          "name": "sender",
          "type": "address"
        },
        {
          "indexed": false,
          "internalType": "uint256",
          "name": "amount",
          "type": "uint256"
        }
      ],
      "name": "Received",
      "type": "event"
    },
    {
      "anonymous": false,
      "inputs": [
        {
          "indexed": true,
          "internalType": "address",
          "name": "purchaser",
          "type": "address"
        },
        {
          "indexed": true,
          "internalType": "address",
          "name": "beneficiary",
          "type": "address"
        },
        {
          "indexed": false,
          "internalType": "uint256",
          "name": "value",
          "type": "uint256"
        },
        {
          "indexed": false,
          "internalType": "uint256",
          "name": "amount",
          "type": "uint256"
        }
      ],
      "name": "TokenPurchase",
      "type": "event"
    },
    {
      "stateMutability": "payable",
      "type": "fallback"
    },
    {
      "inputs": [
        {
          "internalType": "address",
          "name": "_beneficiary",
          "type": "address"
        }
      ],
      "name": "buyTokens",
      "outputs": [],
      "stateMutability": "payable",
      "type": "function"
    },
    {
      "inputs": [],
      "name": "getTokenBalance",
      "outputs": [
        {
          "internalType": "uint256",
          "name": "",
          "type": "uint256"
        }
      ],
      "stateMutability": "view",
      "type": "function"
    },
    {
      "inputs": [],
      "name": "getWallet",
      "outputs": [
        {
          "internalType": "uint256",
          "name": "",
          "type": "uint256"
        }
      ],
      "stateMutability": "view",
      "type": "function"
    },
    {
      "inputs": [],
      "name": "rate",
      "outputs": [
        {
          "internalType": "uint256",
          "name": "",
          "type": "uint256"
        }
      ],
      "stateMutability": "view",
      "type": "function"
    },
    {
      "inputs": [],
      "name": "token",
      "outputs": [
        {
          "internalType": "contract IERC20",
          "name": "",
          "type": "address"
        }
      ],
      "stateMutability": "view",
      "type": "function"
    },
    {
      "inputs": [],
      "name": "wallet",
      "outputs": [
        {
          "internalType": "address",
          "name": "",
          "type": "address"
        }
      ],
      "stateMutability": "view",
      "type": "function"
    },
    {
      "inputs": [],
      "name": "weiRaised",
      "outputs": [
        {
          "internalType": "uint256",
          "name": "",
          "type": "uint256"
        }
      ],
      "stateMutability": "view",
      "type": "function"
    },
    {
      "stateMutability": "payable",
      "type": "receive"
    }
  ],
  "bytecode": "0x60806040523480156200001157600080fd5b5060405162000b5e38038062000b5e8339818101604052810190620000379190620001ef565b600083116200004557600080fd5b600073ffffffffffffffffffffffffffffffffffffffff168273ffffffffffffffffffffffffffffffffffffffff16036200007f57600080fd5b600073ffffffffffffffffffffffffffffffffffffffff168173ffffffffffffffffffffffffffffffffffffffff1603620000b957600080fd5b8260028190555081600160006101000a81548173ffffffffffffffffffffffffffffffffffffffff021916908373ffffffffffffffffffffffffffffffffffffffff160217905550806000806101000a81548173ffffffffffffffffffffffffffffffffffffffff021916908373ffffffffffffffffffffffffffffffffffffffff1602179055505050506200024b565b600080fd5b6000819050919050565b62000164816200014f565b81146200017057600080fd5b50565b600081519050620001848162000159565b92915050565b600073ffffffffffffffffffffffffffffffffffffffff82169050919050565b6000620001b7826200018a565b9050919050565b620001c981620001aa565b8114620001d557600080fd5b50565b600081519050620001e981620001be565b92915050565b6000806000606084860312156200020b576200020a6200014a565b5b60006200021b8682870162000173565b93505060206200022e86828701620001d8565b92505060406200024186828701620001d8565b9150509250925092565b610903806200025b6000396000f3fe6080604052600436106100745760003560e01c8063521eb2731161004e578063521eb2731461014057806382b2e2571461016b578063ec8ac4d814610196578063fc0c546a146101b2576100b4565b806313299604146100bf5780632c4e722e146100ea5780634042b66f14610115576100b4565b366100b4577f88a5966d370b9919b20f3e2c13ff65706f196a4e32cc2c12bf57088f8852587433346040516100aa9291906105d4565b60405180910390a1005b6100bd336101dd565b005b3480156100cb57600080fd5b506100d46102a7565b6040516100e191906105fd565b60405180910390f35b3480156100f657600080fd5b506100ff6102e8565b60405161010c91906105fd565b60405180910390f35b34801561012157600080fd5b5061012a6102ee565b60405161013791906105fd565b60405180910390f35b34801561014c57600080fd5b506101556102f4565b6040516101629190610618565b60405180910390f35b34801561017757600080fd5b5061018061031a565b60405161018d91906105fd565b60405180910390f35b6101b060048036038101906101ab9190610664565b6101dd565b005b3480156101be57600080fd5b506101c761035a565b6040516101d491906106f0565b60405180910390f35b60003490506101ec828261037e565b60006101f7826103c8565b905061020e826003546103e690919063ffffffff16565b60038190555061021e838261040d565b8273ffffffffffffffffffffffffffffffffffffffff163373ffffffffffffffffffffffffffffffffffffffff167f623b3804fa71d67900d064613da8f94b9617215ee90799290593e1745087ad18848460405161027d92919061070b565b60405180910390a361028f838361041b565b6102983461041f565b6102a28383610491565b505050565b6000600160009054906101000a900473ffffffffffffffffffffffffffffffffffffffff1673ffffffffffffffffffffffffffffffffffffffff1631905090565b60025481565b60035481565b600160009054906101000a900473ffffffffffffffffffffffffffffffffffffffff1681565b60008060009054906101000a900473ffffffffffffffffffffffffffffffffffffffff1673ffffffffffffffffffffffffffffffffffffffff1631905090565b60008054906101000a900473ffffffffffffffffffffffffffffffffffffffff1681565b600073ffffffffffffffffffffffffffffffffffffffff168273ffffffffffffffffffffffffffffffffffffffff16036103b757600080fd5b600081036103c457600080fd5b5050565b60006103df6002548361049590919063ffffffff16565b9050919050565b600081836103f49190610763565b90508281101561040757610406610797565b5b92915050565b61041782826104d7565b5050565b5050565b6000600160009054906101000a900473ffffffffffffffffffffffffffffffffffffffff1690508073ffffffffffffffffffffffffffffffffffffffff166108fc839081150290604051600060405180830381858888f1935050505015801561048c573d6000803e3d6000fd5b505050565b5050565b60008083036104a757600090506104d1565b81836104b391906107c6565b90508183826104c29190610837565b146104d0576104cf610797565b5b5b92915050565b60008054906101000a900473ffffffffffffffffffffffffffffffffffffffff1673ffffffffffffffffffffffffffffffffffffffff1663a9059cbb83836040518363ffffffff1660e01b81526004016105329291906105d4565b6020604051808303816000875af1158015610551573d6000803e3d6000fd5b505050506040513d601f19601f8201168201806040525081019061057591906108a0565b505050565b600073ffffffffffffffffffffffffffffffffffffffff82169050919050565b60006105a58261057a565b9050919050565b6105b58161059a565b82525050565b6000819050919050565b6105ce816105bb565b82525050565b60006040820190506105e960008301856105ac565b6105f660208301846105c5565b9392505050565b600060208201905061061260008301846105c5565b92915050565b600060208201905061062d60008301846105ac565b92915050565b600080fd5b6106418161059a565b811461064c57600080fd5b50565b60008135905061065e81610638565b92915050565b60006020828403121561067a57610679610633565b5b60006106888482850161064f565b91505092915050565b6000819050919050565b60006106b66106b16106ac8461057a565b610691565b61057a565b9050919050565b60006106c88261069b565b9050919050565b60006106da826106bd565b9050919050565b6106ea816106cf565b82525050565b600060208201905061070560008301846106e1565b92915050565b600060408201905061072060008301856105c5565b61072d60208301846105c5565b9392505050565b7f4e487b7100000000000000000000000000000000000000000000000000000000600052601160045260246000fd5b600061076e826105bb565b9150610779836105bb565b925082820190508082111561079157610790610734565b5b92915050565b7f4e487b7100000000000000000000000000000000000000000000000000000000600052600160045260246000fd5b60006107d1826105bb565b91506107dc836105bb565b92508282026107ea816105bb565b9150828204841483151761080157610800610734565b5b5092915050565b7f4e487b7100000000000000000000000000000000000000000000000000000000600052601260045260246000fd5b6000610842826105bb565b915061084d836105bb565b92508261085d5761085c610808565b5b828204905092915050565b60008115159050919050565b61087d81610868565b811461088857600080fd5b50565b60008151905061089a81610874565b92915050565b6000602082840312156108b6576108b5610633565b5b60006108c48482850161088b565b9150509291505056fea26469706673582212204db7d0a96a942b56d125a64c59dc440c21581a67e7cd7fb2a70a6c3277f0778964736f6c63430008130033",
  "linkReferences": {},
  "deployedLinkReferences": {}
}